:020000040800F2
:1000000000000120491E0008E51D0008E71D00084A
:10001000E91D0008EB1D0008ED1D000800000000B0
:10002000000000000000000000000000EF1D0008BC
:10003000F11D000800000000F31D0008F51D000878
:10004000991E0008991E0008991E0008991E0008B4
:10005000991E0008991E0008991E0008991E0008A4
:10006000991E0008991E0008991E0008991E000894
:10007000991E0008991E0008991E0008991E000884
:10008000991E0008991E0008991E0008991E000874
:10009000991E0008991E0008991E0008991E000864
:1000A000991E0008991E0008991E0008991E000854
:1000B000991E00080000000000000000991E0008C2
:1000C000991E00080000000000000000991E0008B2
:1000D00000000000991E0008991E000800000000A2
:1000E000991E0008991E0008000000000000000092
:1000F0000000000000000000000000000000000000
:10010000000000000000000000000000991E000830
:100110000000000000000000991E0008991E000861
:10012000991E0008991E0008991E0008991E0008D3
:10013000991E000800000000000000000000000000
:10014000991E0008991E0008991E0008991E0008B3
:10015000991E0008991E0008991E0008991E0008A3
:10016000991E0008991E0008991E00080000000052
:10017000991E0008991E0008000000000000000001
:10018000991E0008991E0008991E00080000000032
:1001900010B5054C237833B9044B13B10448AFF3C1
:1001A00000800123237010BD080000200000000023
:1001B000E41E000808B5034B1BB103490348AFF325
:1001C000008008BD000000000C000020E41E0008B4
:1001D00010B50446094B1868094BA3FB0030800991
:1001E00000F084F808B1012010BD002221464FF034
:1001F000FF3000F047F80020F6E700BF00000020C5
:10020000D34D621010B5032000F02AF80020FFF74C
:10021000DFFF10B10124204610BD044601F074FD3B
:10022000F9E70000024A136801331360704700BF0A
:100230002C000020014B1868704700BF2C000020E4
:1002400038B50446FFF7F6FF0546B4F1FF3F00D08E
:100250000134FFF7EFFF401BA042FAD338BD000086
:10026000074AD36823F4E0631B041B0C000200F46C
:10027000E060184340F0BF6040F40030D060704749
:1002800000ED00E030B4174BDB68C3F30223C3F189
:100290000704042C28BF04241D1D062D18D9033B78
:1002A0004FF0FF3505FA04F421EA0401994005FAFC
:1002B00003F322EA0303194300280BDB0901C9B247
:1002C00000F1604000F5614080F8001330BC7047D9
:1002D0000023E5E700F00F000901C9B2024B1954F1
:1002E000F4E700BF00ED00E014ED00E00138B0F1EC
:1002F000807F0AD2064B5860064AF02182F823100C
:100300000020986007221A6070470120704700BFE4
:1003100010E000E000ED00E0042805D0054A136875
:1003200023F0040313607047024A136843F0040388
:100330001360704710E000E0704708B5FFF7FCFF5E
:1003400008BD0000F0B482B000236FE0866805EAC3
:10035000060CCE68BE4046EA0C068660466826EA71
:1003600004044E68C6F300169E4026434660C468E7
:1003700025408C68BC402C43C4604C6814F0805FFE
:1003800053D04C4C256E45F001052566246E04F0D3
:1003900001040194019C9D08AE1C474C54F8267042
:1003A00003F00304A6000F24B44027EA0407B0F1C9
:1003B000904F77D0414CA04276D004F58064A042A3
:1003C0006ED00724B4403C4302353B4E46F82540EE
:1003D0003B4C2568D44304EA05064F6817F4803F78
:1003E00001D042EA0506364D2E606D6804EA050626
:1003F0004F6817F4003F01D042EA0506304D6E60A9
:10040000AD6804EA05064F6817F4801F01D042EA80
:1004100005062B4DAE60ED682C404E6816F4001FAB
:1004200001D042EA0504264AD46001330A6832FA50
:1004300003F43BD001249C402240F6D04D68022DAD
:1004400001D0122D10D1DE08083650F826C003F076
:100450000705AF000F25BD402CEA050C0D69BD4016
:1004600045EA0C0540F8265006685F000325BD40AC
:10047000ED4305EA060C4E6806F00306BE4046EA68
:100480000C0606604E6806F1FF3CBCF1010F7FF6DA
:100490005DAF112E3FF45AAF122E7FF468AF55E7CF
:1004A00002248FE700248DE701248BE702B0F0BC23
:1004B000704700BF001002400000014000040048E7
:1004C000000401400AB981627047816170470000F1
:1004D000024B186800F4C060704700BF0070004015
:1004E000B0F5007F0FD01F4B1B6803F4C063B3F55A
:1004F000806F34D01B4A136823F4C06343F48063D5
:10050000136000207047174B1B6803F4C063B3F5FA
:10051000007F22D0134A136823F4C06343F40073AE
:100520001360114B1A68322303FB02F30F4AA2FB3C
:1005300003239B0C013300E0013B0A4A526912F489
:10054000806F01D0002BF7D1064B5B6913F4806FED
:1005500001D1002070470320704700207047002021
:10056000704700BF007000400000002083DE1B4386
:1005700030B583B00546204B9B6D13F0805F0BD0E8
:10058000FFF7A6FFB0F5007F17D0802D1FD82DD024
:10059000702D2DD000211BE0174CA36D43F080532C
:1005A000A365A36D03F080530193019BFFF790FFB8
:1005B000A36D23F08053A365E4E7802D03D9A02D1C
:1005C00003D9022104E0002102E0012100E003211F
:1005D0000A4A136823F007030B431360136803F000
:1005E00007038B4206D0012003B030BD0221EFE7A4
:1005F0000121EDE70020F7E7001002400020024053
:10060000314A9368D26802F0030213F00C030AD057
:100610000C2B06D0042B1FD0082B20D00020014625
:1006200010E0012AF6D1284A126812F0080F0CD106
:10063000254AD2F89420C2F30322244951F822100B
:1006400043B100200C2B0DD070471F4A1268C2F333
:100650000312F2E70846F5E71D480021F2E71D48BE
:100660000021EFE7184BDA6802F00302DB68C3F3FE
:1006700002130133022A0AD0032A1AD0B1FBF3F382
:10068000114AD068C0F3062000FB03F008E01048D0
:10069000B0FBF3F30C4AD068C0F3062000FB03F074
:1006A000094BDB68C3F3416301335B00B0FBF3F03C
:1006B000CAE70848B0FBF3F3034AD068C0F306204A
:1006C00000FB03F0ECE700BF001002400C1F000825
:1006D0000024F40000127A00002800F0C182F0B576
:1006E00083B00446AC4B9D6805F00C05DE6806F04F
:1006F0000306036813F0100F5DD0E5B10C2D18D080
:10070000A369002B00F0B780A34A136843F00103EC
:100710001360FFF78FFD07469F4B1B6813F0020F16
:1007200040F09680FFF786FDC01B0228F4D9032312
:10073000A2E2012EE4D1984B1B6813F0020F03D004
:10074000A369002B00F08F82206A934B1B6813F083
:10075000080F5DD0904B1B6803F0F00398425ED900
:10076000FFF706FF002840F080828B4B1A6842F0AA
:1007700008021A601A6822F0F002216A0A431A601D
:100780005A6822F47F42E16942EA01225A60FFF787
:1007900037FF814B9B68C3F30313804AD35C03F09C
:1007A0001F03D8407E4B18600020FFF711FD034661
:1007B000002840F06182236813F0010F7AD0082DE1
:1007C0006FD00C2D6BD06368B3F5803F00F0918043
:1007D000B3F5A02F00F093806F4B1A6822F480329B
:1007E0001A601A6822F480221A606368002B00F0F5
:1007F0009380FFF71FFD0746674B1B6813F4003F0C
:1008000058D1FFF717FDC01B6428F5D9032333E245
:10081000614BD3F894301B0903F0F0039EE75E4B65
:100820001A6842F008021A601A6822F0F002216A7F
:100830000A431A605A6822F47F42E16942EA0122BF
:100840005A60206AFFF794FE0028A0D0012313E22B
:10085000514B1A6842F008021A601A6822F0F0023E
:10086000216A0A431A605A6822F47F42E16942EA27
:1008700001225A609FE7484A136823F0010313607E
:10088000FFF7D8FC0746444B1B6813F0020F92D0C9
:10089000FFF7D0FCC01B0228F5D90323ECE1032E9F
:1008A00091D13D4B1B6813F4003F03D06368002BCC
:1008B00000F0DD81236813F0020F4FD0042D3CD0EF
:1008C0000C2D38D0E368002B75D0334A136843F4FD
:1008D00080731360FFF7AEFC06462F4B1B6813F4C2
:1008E000806F5FD1FFF7A6FC801B0228F5D9032398
:1008F000C2E1294A136843F48033136075E703F1BA
:100900008043A3F53C331A6842F480221A601A68C7
:1009100042F480321A6068E7FFF78CFC07461E4BF2
:100920001B6813F4003FC5D0FFF784FCC01B64288C
:10093000F5D90323A0E1022EC4D1174B1B6813F491
:10094000806F03D0E368002B00F09381124A536854
:1009500023F0F853216943EA01635360236813F0DD
:10096000080F53D06369002B39D00B4AD2F894306A
:1009700043F00103C2F89430FFF75CFC0646064BD7
:10098000D3F8943013F0020F40D1FFF753FC801BD3
:100990000228F4D903236FE1001002403C1F000835
:1009A00000000020B74A536823F0F853216943EA56
:1009B00001635360D2E7B34A136823F48073136072
:1009C000FFF738FC0646AF4B1B6813F4806FC5D0A9
:1009D000FFF730FC801B0228F5D903234CE1A94A1C
:1009E000D2F8943023F00103C2F89430FFF722FCD0
:1009F0000646A44BD3F8943013F0020F06D0FFF74D
:100A000019FC801B0228F4D9032335E1236813F075
:100A1000040F7AD09B4B9B6D13F0805F0BD1994BE9
:100A20009A6D42F080529A659B6D03F0805301935A
:100A3000019B012600E00026934B1B6813F4807F86
:100A400026D0A368012B37D0052B3DD08D4BD3F892
:100A5000902022F00102C3F89020D3F8902022F0D9
:100A60000402C3F89020A368002B3BD0FFF7E2FB01
:100A70000746844BD3F8903013F0020F44D1FFF7B0
:100A8000D9FBC01B41F288339842F2D90323F3E02B
:100A90007D4A136843F480731360FFF7CBFB07466E
:100AA000794B1B6813F4807FCBD1FFF7C3FBC01BCE
:100AB0000228F5D90323DFE0724AD2F8903043F0E0
:100AC0000103C2F89030CEE76E4BD3F8902042F08D
:100AD0000402C3F89020D3F8902042F00102C3F83A
:100AE0009020C0E7FFF7A6FB0746664BD3F890308F
:100AF00013F0020F08D0FFF79DFBC01B41F28833B3
:100B00009842F2D90323B7E0E6B9236813F0200F27
:100B100035D0636AE3B15B4AD2F8983043F0010301
:100B2000C2F89830FFF786FB0646564BD3F898304C
:100B300013F0020F23D1FFF77DFB801B0228F4D9AD
:100B4000032399E04F4A936D23F080539365DCE7CC
:100B50004C4AD2F8983023F00103C2F89830FFF7DE
:100B600069FB0646474BD3F8983013F0020F06D0C6
:100B7000FFF760FB801B0228F4D903237CE0A36A03
:100B8000002B78D00C2D7AD0022B23D03D4B1A6845
:100B900022F080721A601B6813F0006F04D1394A8A
:100BA000D36823F00303D360364AD36823F08873F5
:100BB00023F48033D360FFF73DFB0446314B1B68C1
:100BC00013F0007F4AD0FFF735FB001B0228F5D950
:100BD000032351E02B4A136823F080731360FFF75F
:100BE00029FB0546274B1B6813F0007F06D0FFF753
:100BF00021FB401B0228F5D903233DE0236B5A1E3D
:100C0000636B1B0243EA0213E26A1343E26B52086E
:100C1000013A43EA4253226C5208013A43EA4263E2
:100C2000A26B43EAC263174AD360136843F0807330
:100C30001360D36843F08073D360FFF7FBFA044678
:100C4000104B1B6813F0007F06D1FFF7F3FA001B6F
:100C50000228F5D903230FE000230DE000230BE069
:100C6000012318467047012306E0012304E0012315
:100C700002E0012300E00023184603B0F0BD012389
:100C8000FAE700BF0010024000700040002800F0AA
:100C90009A8070B504464E4B1B6803F007038B42E5
:100CA0000CD24B4A136823F007030B4313601368FD
:100CB00003F007038B4201D0012070BD0D4623686D
:100CC00013F0010F39D06368032B09D0022B26D013
:100CD00063BB404A126812F0020F06D10120ECE714
:100CE0003C4A126812F0007F6FD03A498A6822F0BD
:100CF000030213438B60FFF79DFA0646354B9B6852
:100D000003F00C036268B3EB820F16D0FFF792FA80
:100D1000801B41F288339842F0D90320CDE72D4A59
:100D2000126812F4003FE0D10120C6E7294A126898
:100D300012F4806FD9D10120BFE7236813F0020FAE
:100D400006D0244A936823F0F003A1680B43936014
:100D50001F4B1B6803F00703AB420CD91C4A1368F6
:100D600023F007032B431360136803F00703AB4220
:100D700001D00120A1E7236813F0040F06D0154A23
:100D8000936823F4E063E1680B439360236813F0F6
:100D9000080F07D00F4A936823F46053216943EA90
:100DA000C1039360FFF72CFC0A4B9B68C3F303134A
:100DB000094AD35C03F01F03D840084B1860002099
:100DC000FFF706FA79E701207047012075E700BFB9
:100DD00000200240001002403C1F000800000020DC
:100DE000014B1868704700BF00000020F8B50546A9
:100DF0000F4616461C462B689B6837EA03030CBF58
:100E000001230023B34237D0B4F1FF3FF3D0FFF703
:100E100011FA069BC01AA04201D2002CEBD12A681D
:100E2000536823F0E00353606B68B3F5827F0BD007
:100E3000AB6AB3F5005F14D0012385F85D30002361
:100E400085F85C30032018E0AB68B3F5004F02D0A2
:100E5000B3F5806FECD12A68136823F04003136068
:100E6000E6E72A68136823F4005313602A681368BE
:100E700043F400531360DFE70020F8BDF8B50746E0
:100E80000C4615461E4602E0B6F1FF3F0BD13A680C
:100E900093682340AB423BD0B4F5C06FF4D1002D32
:100EA000F2D1137BF0E7FFF7C5F9069BC01AB042F9
:100EB00001D2002EEBD13A68536823F0E00353606F
:100EC0007B68B3F5827F0BD0BB6AB3F5005F14D0AB
:100ED000012387F85D30002387F85C30032018E099
:100EE000BB68B3F5004F02D0B3F5806FECD13A6820
:100EF000136823F040031360E6E73A68136823F4AD
:100F0000005313603A68136843F400531360DFE73B
:100F10000020F8BD70B582B004460D46164600921A
:100F20000B4600224FF4C051FFF7A8FFB8B9009656
:100F30002B46002280212046FFF758FFB8B90096C3
:100F40002B4600224FF4C0612046FFF797FF03466F
:100F500050B1236E43F020032366032304E0236E85
:100F600043F0200323660323184602B070BD236EAE
:100F700043F0200323660323F6E770B582B00446EE
:100F80000D4616464368B3F5827F0FD000962B4678
:100F9000002280212046FFF729FF034698B96268A6
:100FA000B2F5827F15D0184602B070BD8368B3F5E4
:100FB000004F02D0B3F5806FE8D12268136823F0A8
:100FC00040031360E2E7236E43F02003236603230C
:100FD000E9E7A268B2F5004F02D0B2F5806FE2D126
:100FE00000962B4600224FF4C0612046FFF746FFD3
:100FF00003460028D7D0236E43F020032366032343
:10100000D1E7002853D010B504460023836290F83E
:101010005D30002B40D0022384F85D3022681368D5
:1010200023F040031360E368B3F5E06F39D9002281
:10103000B3F5706F04D0B3F5E06F01D00021A16269
:10104000216B21B9B3F5E06F2ED9022323636368C6
:10105000A1680B4321690B4361690B43A16901F44A
:1010600000710B43E1690B43216A0B43A06A2168BD
:1010700003430B60638B03F00403616A0B43616BF2
:101080000B43E1680B43216813434B60002020664B
:10109000012384F85D3010BD80F85C3000F07CFEE8
:1010A000B9E74FF48052C3E701232363CFE7012060
:1010B00070472DE9F04182B090F85C40012C00F0BF
:1010C000D9801D46174688460446012380F85C30C7
:1010D000FFF7B0F8064694F85D30DBB2012B09D07B
:1010E0000220012384F85D30002384F85C3002B0D4
:1010F000BDE8F081032384F85D3000232366C4F843
:101100003880A787E7872364A4F84430A4F84630E2
:101110002365E364A368B3F5004F1CD023681A6805
:1011200012F0400F03D11A6842F040021A60E368DF
:10113000B3F5E06F33D963680BB1012F1BD1A26BFC
:1011400023681288DA60A36B0233A363E38F013B49
:101150009BB2E3870FE02268136843F48043136077
:10116000DCE7FFF767F8801BA84202D3B5F1FF3F29
:1011700076D1002D76D0E28F92B2002A5BD0236820
:101180009A6812F0020FECD0A26B1288DA60A36B9F
:101190000233A363E28F013A92B2E287EBE763681E
:1011A0000BB1012F30D1E38F9BB2012B0BD9A26B76
:1011B00023681288DA60A36B0233A363E38F023BD8
:1011C0009BB2E38720E0A26B236812781A73A36BAB
:1011D0000133A363E38F013B9BB2E38714E0A36B6E
:1011E0001B781373A36B0133A363E38F013B9BB2A3
:1011F000E38709E0FFF71EF8801BA84202D3B5F190
:10120000FF3F31D1002D31D0E28F92B29AB12268E6
:10121000936813F0020FEDD0E38F9BB2012BDED960
:10122000A36B1B88D360A36B0233A363E38F023BE2
:101230009BB2E387E8E7324629462046FFF76AFE7D
:1012400008B120232366A36833B901932368DA68C1
:1012500001929B680193019B236E4BB9002040E7EC
:1012600003203EE703203CE703203AE7032038E76A
:10127000012036E702203AE72DE9F843089D90F86F
:101280005C40012C00F04C811F4691468846044684
:10129000012380F85C30FEF7CDFF064694F85D3000
:1012A000DBB26268012B14D0B2F5827F09D0022331
:1012B000012284F85D20002284F85C201846BDE8F5
:1012C000F883A268002A40F02381042B01D0022376
:1012D000EEE794F85D30DBB2042B02D0052384F8EE
:1012E0005D3000232366C4F84090A4F84670A4F84B
:1012F0004470C4F83880E787A787E3642365E36810
:10130000B3F5E06F01D8012F22D92268536823F486
:101310008053536023681A6812F0400F03D11A6893
:1013200042F040021A60E368B3F5E06F55D9636894
:101330000BB1012F0AD1A26B23681288DA60A36B6C
:101340000233A363E38F013B9BB2E387012724E0D1
:101350002268536843F480535360DBE723689A683C
:1013600012F0010F10D0B4F8462092B262B1DA68E0
:10137000236C1A80236C02332364B4F84630013B9B
:101380009BB2A4F846300127FEF754FF801BA84209
:1013900003D3B5F1FF3F40F0BD80E38F9BB22BB983
:1013A000B4F846309BB2002B00F0A58023689A6801
:1013B00012F0020FD2D0E28F92B2002ACED0002FCC
:1013C000CCD0A26B1288DA60A36B0233A363E38FE5
:1013D000013B9BB2E3870027C0E763680BB1012F95
:1013E0000ED1E38F9BB2012B0CD9A26B236812881C
:1013F000DA60A36B0233A363E38F023B9BB2E38704
:10140000012745E0A26B236812781A73A36B01339E
:10141000A363E38F013B9BB2E387F1E7E28F92B2D4
:10142000012A0BD9A26B1288DA60A36B0233A36383
:10143000E38F023B9BB2E38700273AE0A26B12786E
:101440001A73A36B0133A363E38F013B9BB2E38762
:1014500000272EE02268536843F48053536001272D
:101460000CE0226C1B7B1370236C01332364B4F8F3
:101470004630013B9BB2A4F846300127FEF7DAFE66
:10148000801BA84202D3B5F1FF3F45D1002D45D0C6
:10149000E38F9BB21BB9B4F846309BB25BB32368B1
:1014A0009A6812F0020F04D0E28F92B20AB1002FB4
:1014B000B4D123689A6812F0010FDFD0B4F8462047
:1014C00092B2002ADAD0B4F8462092B2012AC8D9E2
:1014D000DA68236C1A80236C02332364B4F8463034
:1014E000023B9BB2A4F84630B4F846309BB2012BC5
:1014F000B0D90127C2E7324629462046FFF70AFD48
:10150000034600283FF4D4AE202323660123CFE610
:101510000223CDE60323CBE60323C9E60323C7E674
:101520000223CBE62DE9F04182B004460F469046F7
:101530001D464368B3F5827F19D094F85C30012BC7
:1015400000F0B880012384F85C30FEF773FE064695
:1015500094F85D30DBB2012B15D00220012384F812
:101560005D30002384F85C3002B0BDE8F081836810
:10157000002BE2D1042380F85D30009513460A4623
:10158000FFF77AFEF0E7002F00F08680B8F1000F39
:1015900000F08480042384F85D30002323662764F0
:1015A000A4F84480A4F84680A363A387E387E36498
:1015B0002365E368B3F5E06F16D92268536823F416
:1015C00080535360A368B3F5004F13D023681A68A3
:1015D00012F0400F03D11A6842F040021A60E3682B
:1015E000B3F5E06F16D935E02268536843F48053B1
:1015F0005360E7E72268136823F480431360E5E74C
:10160000FEF718FE801BA84202D3B5F1FF3F47D179
:10161000002D47D0B4F846309BB2002B30D0236861
:101620009A6812F0010FEBD0226C1B7B1370236CB5
:1016300001332364B4F84630013B9BB2A4F8463032
:10164000E8E7FEF7F7FD801BA84202D3B5F1FF3FA4
:101650002AD15DB3B4F846309BB28BB123689A6847
:1016600012F0010FEDD0DA68236C1A80236C02337C
:101670002364B4F84630013B9BB2A4F84630E9E756
:10168000324629462046FFF778FC08B1202323661E
:10169000236E6BB9002061E701205FE701205DE761
:1016A00003205BE7032059E7032057E7032055E7B2
:1016B000012053E7022057E710B586B000230093BE
:1016C00001930293039304930593324B1868002807
:1016D0005DD0446A18236A468821407FA0479DF860
:1016E00001109DF800202B4B1B6842EA01221A8052
:1016F0009DF903109DF8022042EA01225A809DF9CB
:1017000005109DF8042042EA01229A809DF80710F6
:101710009DF8062042EA0122DA809DF909109DF821
:10172000082042EA01221A819DF90B109DF80A2037
:1017300042EA01225A819DF90D109DF80C2042EADF
:1017400001229A819DF90F109DF80E2042EA012294
:10175000DA819DF911109DF8102042EA01221A82C7
:101760009DF913109DF8122042EA01225A829DF938
:1017700015109DF8142042EA01229A829DF9171053
:101780009DF8162042EA0122DA8206B010BD6FF001
:101790007E00FAE72400002030B583B000238DF8E6
:1017A0000730144B18600524B4B1124B1868456A11
:1017B00001230DF10702D021407FA8479DF8073093
:1017C000563BDBB2022B07D9013CE4B2094B1B6844
:1017D0009B6A01209847E7E7064B1B689DF80720A6
:1017E0001A771CB1FFF768FF03B030BD4FF0FF3030
:1017F000FAE700BF2400002030B583B000238DF845
:1018000007300F4B1C68A4B1032815D8A37F5B01D8
:10181000DBB2E27F9200D2B21344DBB2184402AAD8
:1018200002F8010D256A0123F421607FA84703B067
:1018300030BD6FF07E00FAE76FF00100F7E700BF00
:101840002400002010B582B0B6238DF80730074B76
:10185000186840B1046A01230DF10702E021407FBE
:10186000A04702B010BD6FF07E00FAE72400002010
:1018700070B582B000238DF80730144B1D6815B386
:1018800004466E6A01230DF10702F521687FB04717
:101890000546A8B99DF8070020F01C0043B2A0003F
:1018A00000F01C00184302AA02F8010D074B18684B
:1018B000046A0123F521407FA04755FA80F56DB2F7
:1018C000284602B070BD6FF07E05F9E724000020C5
:1018D00070B582B000238DF80730134B1C68FCB143
:1018E0000546666A01230DF10702F521607FB047C6
:1018F000044690B99DF8073003F01F0343EA4510F2
:1019000002AA02F8010D084B1868056A0123F521A7
:10191000407FA84754FA80F464B2204602B070BDFC
:101920006FF07E04F9E700BF2400002070B582B09C
:1019300000238DF807302E4B1D68002D52D004284F
:1019400053D804466E6A01230DF10702F421687F23
:10195000B047054638BB042C09D8DFE804F003275C
:101960002E353C00224B1B6801229A77DA779DF8CE
:10197000073003F01F031E4A1068827F43EA4213B8
:101980005BB223F01C03C27F920002F01C021343DF
:1019900002AA02F8013D046A0123F421407FA04716
:1019A00055FA80F56DB2284602B070BD104B1B6829
:1019B00001229A770222DA77D9E70D4B1B680122C0
:1019C0009A770322DA77D2E7094B1B6801229A77CC
:1019D0000422DA77CBE7064B1B6802229A770522AE
:1019E000DA77C4E76FF07E05DDE76FF00105DAE72F
:1019F00024000020F0B585B0052B32D81C4600200D
:101A0000034612E04E1C451C01F07F0104AF074461
:101A100007F80C1C0230C0B2D75C04A951FA85F15A
:101A200001F80C7C0133DBB2F1B2A342EAD300220D
:101A300008214FF09040FEF745FD6423620001A9A4
:101A40000948FFF736FB48B90024012208214FF06E
:101A50009040FEF737FD204605B0F0BD4FF0FF3453
:101A6000F3E74FF0FF34F6E75C00002070B582B07A
:101A700015461E4661F07F0102AC04F8011D0022EC
:101A800008214FF09040FEF71DFD02230122214660
:101A90000D48FFF70EFB80B9002402233246294689
:101AA0000948FFF73FFD58B9012208214FF0904047
:101AB000FEF708FD204602B070BD4FF0FF34ECE7A2
:101AC0004FF0FF34F0E700BF5C00002010B5134872
:101AD000134B0362134B4362134B8362FFF75CFEAD
:101AE000C8B904460420FFF721FF54FA80F4E4B299
:101AF0000420FFF7BDFE54FA80F4E4B20320FFF7A0
:101B00007BFE54FA80F4E4B20120FFF7E1FE54FAC0
:101B100080F040B210BD4FF0FF30FBE730000020F6
:101B2000F51900086D1A00084102000800B583B0DD
:101B30000E4B93E803000090ADF8041006236A46AC
:101B4000F7210020FFF792FF9DF800209DF801305B
:101B50001B0143EA02339DF8022043EA121300EE10
:101B6000103AB8EEC00A03B05DF804FB041F000889
:101B700000B587B00F4BDA6C42F00102DA64DB6C1F
:101B800003F001030093009B002208214FF09040D6
:101B9000FEF798FC0823019301230293002303938B
:101BA000049301A94FF09040FEF7CCFB07B05DF81D
:101BB00004FB00BF00100240FEE7000008B50F481C
:101BC0000F4B03604FF482734360002383604FF434
:101BD000E062C260036143614FF4007282612822B7
:101BE000C2610362436283620A23C362FFF709FA98
:101BF00000B908BDE0210348FFF7DEFF5C000020CC
:101C000000300140541F000800B597B01023059321
:101C100001220B9200230C9360230D9302230F9358
:101C20001092119228221292072213921493159364
:101C300005A8FEF751FD28BB0F2300930323019352
:101C4000002302930393049304216846FFF71EF8D0
:101C5000E0B94FF40070FEF743FCD8B9FFF7C0F8C5
:101C60000E4BA3FB00308009FEF740FB0420FEF77B
:101C700053FB002211464FF0FF30FEF703FB17B075
:101C80005DF804FBA7210648FFF796FFB52104483D
:101C9000FFF792FFBC210248FFF78EFFD34D621081
:101CA000541F000800B583B0FEF7ACFAFFF7ACFF95
:101CB000FFF75EFFFFF782FF114BDA6C42F0010283
:101CC000DA64DB6C03F001030193019B012208211C
:101CD0004FF09040FEF7F6FBFFF7B4FD3220FEF721
:101CE000AFFAFFF7F3FEFFF721FF07EE900AF8EED9
:101CF000E77A044BC3ED007A1420FEF7A1FAF2E76D
:101D0000001002402800002000B583B0214B1A6E5D
:101D100042F001021A661A6E02F001020092009A65
:101D20009A6D42F080529A659B6D03F08053019347
:101D3000019B0320FEF794FA002211466FF00B007E
:101D4000FEF7A0FA002211466FF00A00FEF79AFA99
:101D5000002211466FF00900FEF794FA00221146A6
:101D60006FF00400FEF78EFA002211466FF00300B8
:101D7000FEF788FA002211466FF00100FEF782FAA2
:101D8000002211464FF0FF30FEF77CFA03B05DF8F9
:101D900004FB00BF001002400268114B9A4200D0C1
:101DA000704700B587B003F560431A6E42F4805265
:101DB0001A661B6E03F480530093009BE02301938B
:101DC0000223029300230393032304930523059323
:101DD00001A94FF09040FEF7B5FA07B05DF804FB9B
:101DE000003001407047FEE7FEE7FEE7FEE7704780
:101DF0007047704708B5FEF715FAFEF79EFA08BD62
:101E00000F49D1F8883043F47003C1F888300D4B86
:101E10001A6842F001021A60002098601A6822F0E5
:101E2000A85222F410221A604FF48052DA601A6825
:101E300022F480221A6098614FF000638B60704733
:101E400000ED00E000100240DFF834D0002103E094
:101E50000C4B5B58435004310B480C4B42189A42D0
:101E6000F6D30B4A02E0002342F8043B094B9A42A6
:101E7000F9D3FFF7C5FF00F011F8FFF713FFFEE7F6
:101E800000000120781F000800000020080000204A
:101E900008000020C0000020FEE7000070B50D4ED5
:101EA0000D4CA41BA4100025A54209D10B4E0C4CCF
:101EB00000F018F8A41BA4100025A54205D170BDA0
:101EC00056F8253098470135EEE756F82530984703
:101ED0000135F2E7681F0008681F0008681F000846
:101EE0006C1F0008F8B500BFF8BC08BC9E467047E0
:101EF000F8B500BFF8BC08BC9E4670470000000063
:101F0000555555005555555555550000A0860100AD
:101F1000400D0300801A060000350C0040420F00FF
:101F200080841E0000093D0000127A000024F400A5
:101F300000366E010048E801006CDC020000000081
:101F40000000000001020304060708090000000069
:101F5000010203042E2E2F5372632F6D61696E2EC2
:081F6000630000000000000016
:081F6800B501000800000000B3
:081F70009101000800000000CF
:081F780000093D00000000001B
:0400000508001E4988
:00000001FF
